{
  "_format": "hh-sol-artifact-1",
  "contractName": "ANENFT",
  "sourceName": "contracts/ANENFT.sol",
  "abi": [
    {
      "inputs": [],
      "stateMutability": "nonpayable",
      "type": "constructor"
    },
    {
      "anonymous": false,
      "inputs": [
        {
          "indexed": true,
          "internalType": "address",
          "name": "owner",
          "type": "address"
        },
        {
          "indexed": true,
          "internalType": "address",
          "name": "approved",
          "type": "address"
        },
        {
          "indexed": true,
          "internalType": "uint256",
          "name": "tokenId",
          "type": "uint256"
        }
      ],
      "name": "Approval",
      "type": "event"
    },
    {
      "anonymous": false,
      "inputs": [
        {
          "indexed": true,
          "internalType": "address",
          "name": "owner",
          "type": "address"
        },
        {
          "indexed": true,
          "internalType": "address",
          "name": "operator",
          "type": "address"
        },
        {
          "indexed": false,
          "internalType": "bool",
          "name": "approved",
          "type": "bool"
        }
      ],
      "name": "ApprovalForAll",
      "type": "event"
    },
    {
      "anonymous": false,
      "inputs": [
        {
          "indexed": true,
          "internalType": "address",
          "name": "from",
          "type": "address"
        },
        {
          "indexed": true,
          "internalType": "address",
          "name": "to",
          "type": "address"
        },
        {
          "indexed": true,
          "internalType": "uint256",
          "name": "tokenId",
          "type": "uint256"
        }
      ],
      "name": "Transfer",
      "type": "event"
    },
    {
      "inputs": [
        {
          "internalType": "address",
          "name": "to",
          "type": "address"
        },
        {
          "internalType": "uint256",
          "name": "tokenId",
          "type": "uint256"
        }
      ],
      "name": "approve",
      "outputs": [],
      "stateMutability": "nonpayable",
      "type": "function"
    },
    {
      "inputs": [
        {
          "internalType": "address",
          "name": "owner",
          "type": "address"
        }
      ],
      "name": "balanceOf",
      "outputs": [
        {
          "internalType": "uint256",
          "name": "",
          "type": "uint256"
        }
      ],
      "stateMutability": "view",
      "type": "function"
    },
    {
      "inputs": [
        {
          "internalType": "string",
          "name": "tokenURI",
          "type": "string"
        },
        {
          "internalType": "uint256",
          "name": "price",
          "type": "uint256"
        }
      ],
      "name": "createToken",
      "outputs": [
        {
          "internalType": "uint256",
          "name": "",
          "type": "uint256"
        }
      ],
      "stateMutability": "payable",
      "type": "function"
    },
    {
      "inputs": [
        {
          "internalType": "uint256",
          "name": "tokenId",
          "type": "uint256"
        }
      ],
      "name": "executeSale",
      "outputs": [],
      "stateMutability": "payable",
      "type": "function"
    },
    {
      "inputs": [],
      "name": "getAllNfts",
      "outputs": [
        {
          "components": [
            {
              "internalType": "uint256",
              "name": "tokenId",
              "type": "uint256"
            },
            {
              "internalType": "address payable",
              "name": "owner",
              "type": "address"
            },
            {
              "internalType": "address payable",
              "name": "seller",
              "type": "address"
            },
            {
              "internalType": "uint256",
              "name": "price",
              "type": "uint256"
            },
            {
              "internalType": "bool",
              "name": "currentlyListed",
              "type": "bool"
            }
          ],
          "internalType": "struct ANENFT.listedToken[]",
          "name": "",
          "type": "tuple[]"
        }
      ],
      "stateMutability": "view",
      "type": "function"
    },
    {
      "inputs": [
        {
          "internalType": "uint256",
          "name": "tokenId",
          "type": "uint256"
        }
      ],
      "name": "getApproved",
      "outputs": [
        {
          "internalType": "address",
          "name": "",
          "type": "address"
        }
      ],
      "stateMutability": "view",
      "type": "function"
    },
    {
      "inputs": [],
      "name": "getCurrentTokenId",
      "outputs": [
        {
          "internalType": "uint256",
          "name": "",
          "type": "uint256"
        }
      ],
      "stateMutability": "view",
      "type": "function"
    },
    {
      "inputs": [],
      "name": "getLatestIdToken",
      "outputs": [
        {
          "components": [
            {
              "internalType": "uint256",
              "name": "tokenId",
              "type": "uint256"
            },
            {
              "internalType": "address payable",
              "name": "owner",
              "type": "address"
            },
            {
              "internalType": "address payable",
              "name": "seller",
              "type": "address"
            },
            {
              "internalType": "uint256",
              "name": "price",
              "type": "uint256"
            },
            {
              "internalType": "bool",
              "name": "currentlyListed",
              "type": "bool"
            }
          ],
          "internalType": "struct ANENFT.listedToken",
          "name": "",
          "type": "tuple"
        }
      ],
      "stateMutability": "view",
      "type": "function"
    },
    {
      "inputs": [
        {
          "internalType": "uint256",
          "name": "tokenId",
          "type": "uint256"
        }
      ],
      "name": "getListedTokenId",
      "outputs": [
        {
          "components": [
            {
              "internalType": "uint256",
              "name": "tokenId",
              "type": "uint256"
            },
            {
              "internalType": "address payable",
              "name": "owner",
              "type": "address"
            },
            {
              "internalType": "address payable",
              "name": "seller",
              "type": "address"
            },
            {
              "internalType": "uint256",
              "name": "price",
              "type": "uint256"
            },
            {
              "internalType": "bool",
              "name": "currentlyListed",
              "type": "bool"
            }
          ],
          "internalType": "struct ANENFT.listedToken",
          "name": "",
          "type": "tuple"
        }
      ],
      "stateMutability": "view",
      "type": "function"
    },
    {
      "inputs": [],
      "name": "getListingPrice",
      "outputs": [
        {
          "internalType": "uint256",
          "name": "",
          "type": "uint256"
        }
      ],
      "stateMutability": "view",
      "type": "function"
    },
    {
      "inputs": [],
      "name": "getMyNFTs",
      "outputs": [
        {
          "components": [
            {
              "internalType": "uint256",
              "name": "tokenId",
              "type": "uint256"
            },
            {
              "internalType": "address payable",
              "name": "owner",
              "type": "address"
            },
            {
              "internalType": "address payable",
              "name": "seller",
              "type": "address"
            },
            {
              "internalType": "uint256",
              "name": "price",
              "type": "uint256"
            },
            {
              "internalType": "bool",
              "name": "currentlyListed",
              "type": "bool"
            }
          ],
          "internalType": "struct ANENFT.listedToken[]",
          "name": "",
          "type": "tuple[]"
        }
      ],
      "stateMutability": "view",
      "type": "function"
    },
    {
      "inputs": [
        {
          "internalType": "address",
          "name": "owner",
          "type": "address"
        },
        {
          "internalType": "address",
          "name": "operator",
          "type": "address"
        }
      ],
      "name": "isApprovedForAll",
      "outputs": [
        {
          "internalType": "bool",
          "name": "",
          "type": "bool"
        }
      ],
      "stateMutability": "view",
      "type": "function"
    },
    {
      "inputs": [],
      "name": "name",
      "outputs": [
        {
          "internalType": "string",
          "name": "",
          "type": "string"
        }
      ],
      "stateMutability": "view",
      "type": "function"
    },
    {
      "inputs": [
        {
          "internalType": "uint256",
          "name": "tokenId",
          "type": "uint256"
        }
      ],
      "name": "ownerOf",
      "outputs": [
        {
          "internalType": "address",
          "name": "",
          "type": "address"
        }
      ],
      "stateMutability": "view",
      "type": "function"
    },
    {
      "inputs": [
        {
          "internalType": "address",
          "name": "from",
          "type": "address"
        },
        {
          "internalType": "address",
          "name": "to",
          "type": "address"
        },
        {
          "internalType": "uint256",
          "name": "tokenId",
          "type": "uint256"
        }
      ],
      "name": "safeTransferFrom",
      "outputs": [],
      "stateMutability": "nonpayable",
      "type": "function"
    },
    {
      "inputs": [
        {
          "internalType": "address",
          "name": "from",
          "type": "address"
        },
        {
          "internalType": "address",
          "name": "to",
          "type": "address"
        },
        {
          "internalType": "uint256",
          "name": "tokenId",
          "type": "uint256"
        },
        {
          "internalType": "bytes",
          "name": "data",
          "type": "bytes"
        }
      ],
      "name": "safeTransferFrom",
      "outputs": [],
      "stateMutability": "nonpayable",
      "type": "function"
    },
    {
      "inputs": [
        {
          "internalType": "address",
          "name": "operator",
          "type": "address"
        },
        {
          "internalType": "bool",
          "name": "approved",
          "type": "bool"
        }
      ],
      "name": "setApprovalForAll",
      "outputs": [],
      "stateMutability": "nonpayable",
      "type": "function"
    },
    {
      "inputs": [
        {
          "internalType": "bytes4",
          "name": "interfaceId",
          "type": "bytes4"
        }
      ],
      "name": "supportsInterface",
      "outputs": [
        {
          "internalType": "bool",
          "name": "",
          "type": "bool"
        }
      ],
      "stateMutability": "view",
      "type": "function"
    },
    {
      "inputs": [],
      "name": "symbol",
      "outputs": [
        {
          "internalType": "string",
          "name": "",
          "type": "string"
        }
      ],
      "stateMutability": "view",
      "type": "function"
    },
    {
      "inputs": [
        {
          "internalType": "uint256",
          "name": "tokenId",
          "type": "uint256"
        }
      ],
      "name": "tokenURI",
      "outputs": [
        {
          "internalType": "string",
          "name": "",
          "type": "string"
        }
      ],
      "stateMutability": "view",
      "type": "function"
    },
    {
      "inputs": [
        {
          "internalType": "address",
          "name": "from",
          "type": "address"
        },
        {
          "internalType": "address",
          "name": "to",
          "type": "address"
        },
        {
          "internalType": "uint256",
          "name": "tokenId",
          "type": "uint256"
        }
      ],
      "name": "transferFrom",
      "outputs": [],
      "stateMutability": "nonpayable",
      "type": "function"
    },
    {
      "inputs": [
        {
          "internalType": "uint256",
          "name": "_listPrice",
          "type": "uint256"
        }
      ],
      "name": "updateListPrice",
      "outputs": [],
      "stateMutability": "payable",
      "type": "function"
    }
  ],
  "bytecode": "0x6080604052666a94d74f430000600a553480156200001c57600080fd5b506040518060400160405280600681526020017f414e454e465400000000000000000000000000000000000000000000000000008152506040518060400160405280600381526020017f414e54000000000000000000000000000000000000000000000000000000000081525081600090816200009a919062000370565b508060019081620000ac919062000370565b50505033600760006101000a81548173ffffffffffffffffffffffffffffffffffffffff021916908373ffffffffffffffffffffffffffffffffffffffff16021790555062000457565b600081519050919050565b7f4e487b7100000000000000000000000000000000000000000000000000000000600052604160045260246000fd5b7f4e487b7100000000000000000000000000000000000000000000000000000000600052602260045260246000fd5b600060028204905060018216806200017857607f821691505b6020821081036200018e576200018d62000130565b5b50919050565b60008190508160005260206000209050919050565b60006020601f8301049050919050565b600082821b905092915050565b600060088302620001f87fffffffffffffffffffffffffffffffffffffffffffffffffffffffffffffffff82620001b9565b620002048683620001b9565b95508019841693508086168417925050509392505050565b6000819050919050565b6000819050919050565b6000620002516200024b62000245846200021c565b62000226565b6200021c565b9050919050565b6000819050919050565b6200026d8362000230565b620002856200027c8262000258565b848454620001c6565b825550505050565b600090565b6200029c6200028d565b620002a981848462000262565b505050565b5b81811015620002d157620002c560008262000292565b600181019050620002af565b5050565b601f8211156200032057620002ea8162000194565b620002f584620001a9565b8101602085101562000305578190505b6200031d6200031485620001a9565b830182620002ae565b50505b505050565b600082821c905092915050565b6000620003456000198460080262000325565b1980831691505092915050565b600062000360838362000332565b9150826002028217905092915050565b6200037b82620000f6565b67ffffffffffffffff81111562000397576200039662000101565b5b620003a382546200015f565b620003b0828285620002d5565b600060209050601f831160018114620003e85760008415620003d3578287015190505b620003df858262000352565b8655506200044f565b601f198416620003f88662000194565b60005b828110156200042257848901518255600182019150602085019450602081019050620003fb565b868310156200044257848901516200043e601f89168262000332565b8355505b6001600288020188555050505b505050505050565b61401c80620004676000396000f3fe6080604052600436106101355760003560e01c806372b3b620116100ab578063b647c2cc1161006f578063b647c2cc14610420578063b88d4fde1461045d578063c322579c14610486578063c87b56dd146104a2578063e1215054146104df578063e985e9c51461050a57610135565b806372b3b62014610355578063732e8d731461038557806395d89b41146103b05780639b1225c4146103db578063a22cb465146103f757610135565b806323b872dd116100fd57806323b872dd1461023357806342842e0e1461025c5780635618923614610285578063629cb2e4146102b05780636352211e146102db57806370a082311461031857610135565b806301ffc9a71461013a57806306fdde0314610177578063081812fc146101a2578063095ea7b3146101df57806312e8558514610208575b600080fd5b34801561014657600080fd5b50610161600480360381019061015c919061294e565b610547565b60405161016e9190612996565b60405180910390f35b34801561018357600080fd5b5061018c610629565b6040516101999190612a41565b60405180910390f35b3480156101ae57600080fd5b506101c960048036038101906101c49190612a99565b6106bb565b6040516101d69190612b07565b60405180910390f35b3480156101eb57600080fd5b5061020660048036038101906102019190612b4e565b610701565b005b34801561021457600080fd5b5061021d610818565b60405161022a9190612b9d565b60405180910390f35b34801561023f57600080fd5b5061025a60048036038101906102559190612bb8565b610822565b005b34801561026857600080fd5b50610283600480360381019061027e9190612bb8565b610882565b005b34801561029157600080fd5b5061029a6108a2565b6040516102a79190612b9d565b60405180910390f35b3480156102bc57600080fd5b506102c56108b3565b6040516102d29190612d61565b60405180910390f35b3480156102e757600080fd5b5061030260048036038101906102fd9190612a99565b610c91565b60405161030f9190612b07565b60405180910390f35b34801561032457600080fd5b5061033f600480360381019061033a9190612d83565b610d17565b60405161034c9190612b9d565b60405180910390f35b61036f600480360381019061036a9190612ee5565b610dce565b60405161037c9190612b9d565b60405180910390f35b34801561039157600080fd5b5061039a610e97565b6040516103a79190612d61565b60405180910390f35b3480156103bc57600080fd5b506103c5611066565b6040516103d29190612a41565b60405180910390f35b6103f560048036038101906103f09190612a99565b6110f8565b005b34801561040357600080fd5b5061041e60048036038101906104199190612f6d565b611295565b005b34801561042c57600080fd5b5061044760048036038101906104429190612a99565b6112ab565b6040516104549190613015565b60405180910390f35b34801561046957600080fd5b50610484600480360381019061047f91906130d1565b6113b3565b005b6104a0600480360381019061049b9190612a99565b611415565b005b3480156104ae57600080fd5b506104c960048036038101906104c49190612a99565b61141f565b6040516104d69190612a41565b60405180910390f35b3480156104eb57600080fd5b506104f4611531565b6040516105019190613015565b60405180910390f35b34801561051657600080fd5b50610531600480360381019061052c9190613154565b611646565b60405161053e9190612996565b60405180910390f35b60007f80ac58cd000000000000000000000000000000000000000000000000000000007bffffffffffffffffffffffffffffffffffffffffffffffffffffffff1916827bffffffffffffffffffffffffffffffffffffffffffffffffffffffff1916148061061257507f5b5e139f000000000000000000000000000000000000000000000000000000007bffffffffffffffffffffffffffffffffffffffffffffffffffffffff1916827bffffffffffffffffffffffffffffffffffffffffffffffffffffffff1916145b806106225750610621826116da565b5b9050919050565b606060008054610638906131c3565b80601f0160208091040260200160405190810160405280929190818152602001828054610664906131c3565b80156106b15780601f10610686576101008083540402835291602001916106b1565b820191906000526020600020905b81548152906001019060200180831161069457829003601f168201915b5050505050905090565b60006106c682611744565b6004600083815260200190815260200160002060009054906101000a900473ffffffffffffffffffffffffffffffffffffffff169050919050565b600061070c82610c91565b90508073ffffffffffffffffffffffffffffffffffffffff168373ffffffffffffffffffffffffffffffffffffffff160361077c576040517f08c379a000000000000000000000000000000000000000000000000000000000815260040161077390613266565b60405180910390fd5b8073ffffffffffffffffffffffffffffffffffffffff1661079b61178f565b73ffffffffffffffffffffffffffffffffffffffff1614806107ca57506107c9816107c461178f565b611646565b5b610809576040517f08c379a0000000000000000000000000000000000000000000000000000000008152600401610800906132f8565b60405180910390fd5b6108138383611797565b505050565b6000600a54905090565b61083361082d61178f565b82611850565b610872576040517f08c379a00000000000000000000000000000000000000000000000000000000081526004016108699061338a565b60405180910390fd5b61087d8383836118e5565b505050565b61089d838383604051806020016040528060008152506113b3565b505050565b60006108ae6008611bde565b905090565b606060006108c16008611bde565b905060008060005b838110156109e2573373ffffffffffffffffffffffffffffffffffffffff16600b60006001846108f991906133d9565b815260200190815260200160002060010160009054906101000a900473ffffffffffffffffffffffffffffffffffffffff1673ffffffffffffffffffffffffffffffffffffffff1614806109ba57503373ffffffffffffffffffffffffffffffffffffffff16600b600060018461097091906133d9565b815260200190815260200160002060020160009054906101000a900473ffffffffffffffffffffffffffffffffffffffff1673ffffffffffffffffffffffffffffffffffffffff16145b156109cf576001836109cc91906133d9565b92505b80806109da9061340d565b9150506108c9565b5060008267ffffffffffffffff8111156109ff576109fe612dba565b5b604051908082528060200260200182016040528015610a3857816020015b610a25612885565b815260200190600190039081610a1d5790505b50905060005b84811015610c86573373ffffffffffffffffffffffffffffffffffffffff16600b6000600184610a6e91906133d9565b815260200190815260200160002060010160009054906101000a900473ffffffffffffffffffffffffffffffffffffffff1673ffffffffffffffffffffffffffffffffffffffff161480610b2f57503373ffffffffffffffffffffffffffffffffffffffff16600b6000600184610ae591906133d9565b815260200190815260200160002060020160009054906101000a900473ffffffffffffffffffffffffffffffffffffffff1673ffffffffffffffffffffffffffffffffffffffff16145b15610c73576000600182610b4391906133d9565b90506000600b60008381526020019081526020016000209050806040518060a0016040529081600082015481526020016001820160009054906101000a900473ffffffffffffffffffffffffffffffffffffffff1673ffffffffffffffffffffffffffffffffffffffff1673ffffffffffffffffffffffffffffffffffffffff1681526020016002820160009054906101000a900473ffffffffffffffffffffffffffffffffffffffff1673ffffffffffffffffffffffffffffffffffffffff1673ffffffffffffffffffffffffffffffffffffffff168152602001600382015481526020016004820160009054906101000a900460ff161515151581525050848681518110610c5657610c55613455565b5b6020026020010181905250600185610c6e91906133d9565b945050505b8080610c7e9061340d565b915050610a3e565b508094505050505090565b600080610c9d83611bec565b9050600073ffffffffffffffffffffffffffffffffffffffff168173ffffffffffffffffffffffffffffffffffffffff1603610d0e576040517f08c379a0000000000000000000000000000000000000000000000000000000008152600401610d05906134d0565b60405180910390fd5b80915050919050565b60008073ffffffffffffffffffffffffffffffffffffffff168273ffffffffffffffffffffffffffffffffffffffff1603610d87576040517f08c379a0000000000000000000000000000000000000000000000000000000008152600401610d7e90613562565b60405180910390fd5b600360008373ffffffffffffffffffffffffffffffffffffffff1673ffffffffffffffffffffffffffffffffffffffff168152602001908152602001600020549050919050565b6000600a543414610e14576040517f08c379a0000000000000000000000000000000000000000000000000000000008152600401610e0b906135ce565b60405180910390fd5b60008211610e57576040517f08c379a0000000000000000000000000000000000000000000000000000000008152600401610e4e90613660565b60405180910390fd5b610e616008611c29565b6000610e6d6008611bde565b9050610e793382611c3f565b610e838185611c5d565b610e8d8184611cca565b8091505092915050565b60606000610ea56008611bde565b905060008167ffffffffffffffff811115610ec357610ec2612dba565b5b604051908082528060200260200182016040528015610efc57816020015b610ee9612885565b815260200190600190039081610ee15790505b5090506000805b8381101561105c576000600182610f1a91906133d9565b90506000600b60008381526020019081526020016000209050806040518060a0016040529081600082015481526020016001820160009054906101000a900473ffffffffffffffffffffffffffffffffffffffff1673ffffffffffffffffffffffffffffffffffffffff1673ffffffffffffffffffffffffffffffffffffffff1681526020016002820160009054906101000a900473ffffffffffffffffffffffffffffffffffffffff1673ffffffffffffffffffffffffffffffffffffffff1673ffffffffffffffffffffffffffffffffffffffff168152602001600382015481526020016004820160009054906101000a900460ff16151515158152505085858151811061102d5761102c613455565b5b602002602001018190525060018461104591906133d9565b9350505080806110549061340d565b915050610f03565b5081935050505090565b606060018054611075906131c3565b80601f01602080910402602001604051908101604052809291908181526020018280546110a1906131c3565b80156110ee5780601f106110c3576101008083540402835291602001916110ee565b820191906000526020600020905b8154815290600101906020018083116110d157829003601f168201915b5050505050905090565b6000600b6000838152602001908152602001600020600301549050803414611155576040517f08c379a000000000000000000000000000000000000000000000000000000000815260040161114c906136f2565b60405180910390fd5b6000600b600084815260200190815260200160002060020160009054906101000a900473ffffffffffffffffffffffffffffffffffffffff1690506001600b600085815260200190815260200160002060040160006101000a81548160ff0219169083151502179055506111c96009611c29565b6111d43033856118e5565b6111de3084610701565b600760009054906101000a900473ffffffffffffffffffffffffffffffffffffffff1673ffffffffffffffffffffffffffffffffffffffff166108fc600a549081150290604051600060405180830381858888f19350505050158015611248573d6000803e3d6000fd5b508073ffffffffffffffffffffffffffffffffffffffff166108fc349081150290604051600060405180830381858888f1935050505015801561128f573d6000803e3d6000fd5b50505050565b6112a76112a061178f565b8383611e8e565b5050565b6112b3612885565b600b60008381526020019081526020016000206040518060a0016040529081600082015481526020016001820160009054906101000a900473ffffffffffffffffffffffffffffffffffffffff1673ffffffffffffffffffffffffffffffffffffffff1673ffffffffffffffffffffffffffffffffffffffff1681526020016002820160009054906101000a900473ffffffffffffffffffffffffffffffffffffffff1673ffffffffffffffffffffffffffffffffffffffff1673ffffffffffffffffffffffffffffffffffffffff168152602001600382015481526020016004820160009054906101000a900460ff1615151515815250509050919050565b6113c46113be61178f565b83611850565b611403576040517f08c379a00000000000000000000000000000000000000000000000000000000081526004016113fa9061338a565b60405180910390fd5b61140f84848484611ffa565b50505050565b80600a8190555050565b606061142a82611744565b600060066000848152602001908152602001600020805461144a906131c3565b80601f0160208091040260200160405190810160405280929190818152602001828054611476906131c3565b80156114c35780601f10611498576101008083540402835291602001916114c3565b820191906000526020600020905b8154815290600101906020018083116114a657829003601f168201915b5050505050905060006114d4612056565b905060008151036114e957819250505061152c565b60008251111561151e57808260405160200161150692919061374e565b6040516020818303038152906040529250505061152c565b6115278461206d565b925050505b919050565b611539612885565b60006115456008611bde565b9050600b60008281526020019081526020016000206040518060a0016040529081600082015481526020016001820160009054906101000a900473ffffffffffffffffffffffffffffffffffffffff1673ffffffffffffffffffffffffffffffffffffffff1673ffffffffffffffffffffffffffffffffffffffff1681526020016002820160009054906101000a900473ffffffffffffffffffffffffffffffffffffffff1673ffffffffffffffffffffffffffffffffffffffff1673ffffffffffffffffffffffffffffffffffffffff168152602001600382015481526020016004820160009054906101000a900460ff16151515158152505091505090565b6000600560008473ffffffffffffffffffffffffffffffffffffffff1673ffffffffffffffffffffffffffffffffffffffff16815260200190815260200160002060008373ffffffffffffffffffffffffffffffffffffffff1673ffffffffffffffffffffffffffffffffffffffff16815260200190815260200160002060009054906101000a900460ff16905092915050565b60007f01ffc9a7000000000000000000000000000000000000000000000000000000007bffffffffffffffffffffffffffffffffffffffffffffffffffffffff1916827bffffffffffffffffffffffffffffffffffffffffffffffffffffffff1916149050919050565b61174d816120d5565b61178c576040517f08c379a0000000000000000000000000000000000000000000000000000000008152600401611783906134d0565b60405180910390fd5b50565b600033905090565b816004600083815260200190815260200160002060006101000a81548173ffffffffffffffffffffffffffffffffffffffff021916908373ffffffffffffffffffffffffffffffffffffffff160217905550808273ffffffffffffffffffffffffffffffffffffffff1661180a83610c91565b73ffffffffffffffffffffffffffffffffffffffff167f8c5be1e5ebec7d5bd14f71427d1e84f3dd0314c0f7b2291e5b200ac8c7c3b92560405160405180910390a45050565b60008061185c83610c91565b90508073ffffffffffffffffffffffffffffffffffffffff168473ffffffffffffffffffffffffffffffffffffffff16148061189e575061189d8185611646565b5b806118dc57508373ffffffffffffffffffffffffffffffffffffffff166118c4846106bb565b73ffffffffffffffffffffffffffffffffffffffff16145b91505092915050565b8273ffffffffffffffffffffffffffffffffffffffff1661190582610c91565b73ffffffffffffffffffffffffffffffffffffffff161461195b576040517f08c379a0000000000000000000000000000000000000000000000000000000008152600401611952906137e4565b60405180910390fd5b600073ffffffffffffffffffffffffffffffffffffffff168273ffffffffffffffffffffffffffffffffffffffff16036119ca576040517f08c379a00000000000000000000000000000000000000000000000000000000081526004016119c190613876565b60405180910390fd5b6119d78383836001612116565b8273ffffffffffffffffffffffffffffffffffffffff166119f782610c91565b73ffffffffffffffffffffffffffffffffffffffff1614611a4d576040517f08c379a0000000000000000000000000000000000000000000000000000000008152600401611a44906137e4565b60405180910390fd5b6004600082815260200190815260200160002060006101000a81549073ffffffffffffffffffffffffffffffffffffffff02191690556001600360008573ffffffffffffffffffffffffffffffffffffffff1673ffffffffffffffffffffffffffffffffffffffff168152602001908152602001600020600082825403925050819055506001600360008473ffffffffffffffffffffffffffffffffffffffff1673ffffffffffffffffffffffffffffffffffffffff16815260200190815260200160002060008282540192505081905550816002600083815260200190815260200160002060006101000a81548173ffffffffffffffffffffffffffffffffffffffff021916908373ffffffffffffffffffffffffffffffffffffffff160217905550808273ffffffffffffffffffffffffffffffffffffffff168473ffffffffffffffffffffffffffffffffffffffff167fddf252ad1be2c89b69c2b068fc378daa952ba7f163c4a11628f55a4df523b3ef60405160405180910390a4611bd9838383600161223c565b505050565b600081600001549050919050565b60006002600083815260200190815260200160002060009054906101000a900473ffffffffffffffffffffffffffffffffffffffff169050919050565b6001816000016000828254019250508190555050565b611c59828260405180602001604052806000815250612242565b5050565b611c66826120d5565b611ca5576040517f08c379a0000000000000000000000000000000000000000000000000000000008152600401611c9c90613908565b60405180910390fd5b80600660008481526020019081526020016000209081611cc59190613ad4565b505050565b600a543414611d0e576040517f08c379a0000000000000000000000000000000000000000000000000000000008152600401611d0590613c18565b60405180910390fd5b60008111611d51576040517f08c379a0000000000000000000000000000000000000000000000000000000008152600401611d4890613caa565b60405180910390fd5b6040518060a001604052808381526020013073ffffffffffffffffffffffffffffffffffffffff1681526020013373ffffffffffffffffffffffffffffffffffffffff16815260200182815260200160011515815250600b60008481526020019081526020016000206000820151816000015560208201518160010160006101000a81548173ffffffffffffffffffffffffffffffffffffffff021916908373ffffffffffffffffffffffffffffffffffffffff16021790555060408201518160020160006101000a81548173ffffffffffffffffffffffffffffffffffffffff021916908373ffffffffffffffffffffffffffffffffffffffff1602179055506060820151816003015560808201518160040160006101000a81548160ff021916908315150217905550905050611e8a3330846118e5565b5050565b8173ffffffffffffffffffffffffffffffffffffffff168373ffffffffffffffffffffffffffffffffffffffff1603611efc576040517f08c379a0000000000000000000000000000000000000000000000000000000008152600401611ef390613d16565b60405180910390fd5b80600560008573ffffffffffffffffffffffffffffffffffffffff1673ffffffffffffffffffffffffffffffffffffffff16815260200190815260200160002060008473ffffffffffffffffffffffffffffffffffffffff1673ffffffffffffffffffffffffffffffffffffffff16815260200190815260200160002060006101000a81548160ff0219169083151502179055508173ffffffffffffffffffffffffffffffffffffffff168373ffffffffffffffffffffffffffffffffffffffff167f17307eab39ab6107e8899845ad3d59bd9653f200f220920489ca2b5937696c3183604051611fed9190612996565b60405180910390a3505050565b6120058484846118e5565b6120118484848461229d565b612050576040517f08c379a000000000000000000000000000000000000000000000000000000000815260040161204790613da8565b60405180910390fd5b50505050565b606060405180602001604052806000815250905090565b606061207882611744565b6000612082612056565b905060008151116120a257604051806020016040528060008152506120cd565b806120ac84612424565b6040516020016120bd92919061374e565b6040516020818303038152906040525b915050919050565b60008073ffffffffffffffffffffffffffffffffffffffff166120f783611bec565b73ffffffffffffffffffffffffffffffffffffffff1614159050919050565b600181111561223657600073ffffffffffffffffffffffffffffffffffffffff168473ffffffffffffffffffffffffffffffffffffffff16146121aa5780600360008673ffffffffffffffffffffffffffffffffffffffff1673ffffffffffffffffffffffffffffffffffffffff16815260200190815260200160002060008282546121a29190613dc8565b925050819055505b600073ffffffffffffffffffffffffffffffffffffffff168373ffffffffffffffffffffffffffffffffffffffff16146122355780600360008573ffffffffffffffffffffffffffffffffffffffff1673ffffffffffffffffffffffffffffffffffffffff168152602001908152602001600020600082825461222d91906133d9565b925050819055505b5b50505050565b50505050565b61224c83836124f2565b612259600084848461229d565b612298576040517f08c379a000000000000000000000000000000000000000000000000000000000815260040161228f90613da8565b60405180910390fd5b505050565b60006122be8473ffffffffffffffffffffffffffffffffffffffff1661270f565b15612417578373ffffffffffffffffffffffffffffffffffffffff1663150b7a026122e761178f565b8786866040518563ffffffff1660e01b81526004016123099493929190613e51565b6020604051808303816000875af192505050801561234557506040513d601f19601f820116820180604052508101906123429190613eb2565b60015b6123c7573d8060008114612375576040519150601f19603f3d011682016040523d82523d6000602084013e61237a565b606091505b5060008151036123bf576040517f08c379a00000000000000000000000000000000000000000000000000000000081526004016123b690613da8565b60405180910390fd5b805181602001fd5b63150b7a0260e01b7bffffffffffffffffffffffffffffffffffffffffffffffffffffffff1916817bffffffffffffffffffffffffffffffffffffffffffffffffffffffff19161491505061241c565b600190505b949350505050565b60606000600161243384612732565b01905060008167ffffffffffffffff81111561245257612451612dba565b5b6040519080825280601f01601f1916602001820160405280156124845781602001600182028036833780820191505090505b509050600082602001820190505b6001156124e7578080600190039150507f3031323334353637383961626364656600000000000000000000000000000000600a86061a8153600a85816124db576124da613edf565b5b04945060008503612492575b819350505050919050565b600073ffffffffffffffffffffffffffffffffffffffff168273ffffffffffffffffffffffffffffffffffffffff1603612561576040517f08c379a000000000000000000000000000000000000000000000000000000000815260040161255890613f5a565b60405180910390fd5b61256a816120d5565b156125aa576040517f08c379a00000000000000000000000000000000000000000000000000000000081526004016125a190613fc6565b60405180910390fd5b6125b8600083836001612116565b6125c1816120d5565b15612601576040517f08c379a00000000000000000000000000000000000000000000000000000000081526004016125f890613fc6565b60405180910390fd5b6001600360008473ffffffffffffffffffffffffffffffffffffffff1673ffffffffffffffffffffffffffffffffffffffff16815260200190815260200160002060008282540192505081905550816002600083815260200190815260200160002060006101000a81548173ffffffffffffffffffffffffffffffffffffffff021916908373ffffffffffffffffffffffffffffffffffffffff160217905550808273ffffffffffffffffffffffffffffffffffffffff16600073ffffffffffffffffffffffffffffffffffffffff167fddf252ad1be2c89b69c2b068fc378daa952ba7f163c4a11628f55a4df523b3ef60405160405180910390a461270b60008383600161223c565b5050565b6000808273ffffffffffffffffffffffffffffffffffffffff163b119050919050565b600080600090507a184f03e93ff9f4daa797ed6e38ed64bf6a1f0100000000000000008310612790577a184f03e93ff9f4daa797ed6e38ed64bf6a1f010000000000000000838161278657612785613edf565b5b0492506040810190505b6d04ee2d6d415b85acef810000000083106127cd576d04ee2d6d415b85acef810000000083816127c3576127c2613edf565b5b0492506020810190505b662386f26fc1000083106127fc57662386f26fc1000083816127f2576127f1613edf565b5b0492506010810190505b6305f5e1008310612825576305f5e100838161281b5761281a613edf565b5b0492506008810190505b612710831061284a5761271083816128405761283f613edf565b5b0492506004810190505b6064831061286d576064838161286357612862613edf565b5b0492506002810190505b600a831061287c576001810190505b80915050919050565b6040518060a0016040528060008152602001600073ffffffffffffffffffffffffffffffffffffffff168152602001600073ffffffffffffffffffffffffffffffffffffffff168152602001600081526020016000151581525090565b6000604051905090565b600080fd5b600080fd5b60007fffffffff0000000000000000000000000000000000000000000000000000000082169050919050565b61292b816128f6565b811461293657600080fd5b50565b60008135905061294881612922565b92915050565b600060208284031215612964576129636128ec565b5b600061297284828501612939565b91505092915050565b60008115159050919050565b6129908161297b565b82525050565b60006020820190506129ab6000830184612987565b92915050565b600081519050919050565b600082825260208201905092915050565b60005b838110156129eb5780820151818401526020810190506129d0565b60008484015250505050565b6000601f19601f8301169050919050565b6000612a13826129b1565b612a1d81856129bc565b9350612a2d8185602086016129cd565b612a36816129f7565b840191505092915050565b60006020820190508181036000830152612a5b8184612a08565b905092915050565b6000819050919050565b612a7681612a63565b8114612a8157600080fd5b50565b600081359050612a9381612a6d565b92915050565b600060208284031215612aaf57612aae6128ec565b5b6000612abd84828501612a84565b91505092915050565b600073ffffffffffffffffffffffffffffffffffffffff82169050919050565b6000612af182612ac6565b9050919050565b612b0181612ae6565b82525050565b6000602082019050612b1c6000830184612af8565b92915050565b612b2b81612ae6565b8114612b3657600080fd5b50565b600081359050612b4881612b22565b92915050565b60008060408385031215612b6557612b646128ec565b5b6000612b7385828601612b39565b9250506020612b8485828601612a84565b9150509250929050565b612b9781612a63565b82525050565b6000602082019050612bb26000830184612b8e565b92915050565b600080600060608486031215612bd157612bd06128ec565b5b6000612bdf86828701612b39565b9350506020612bf086828701612b39565b9250506040612c0186828701612a84565b9150509250925092565b600081519050919050565b600082825260208201905092915050565b6000819050602082019050919050565b612c4081612a63565b82525050565b6000612c5182612ac6565b9050919050565b612c6181612c46565b82525050565b612c708161297b565b82525050565b60a082016000820151612c8c6000850182612c37565b506020820151612c9f6020850182612c58565b506040820151612cb26040850182612c58565b506060820151612cc56060850182612c37565b506080820151612cd86080850182612c67565b50505050565b6000612cea8383612c76565b60a08301905092915050565b6000602082019050919050565b6000612d0e82612c0b565b612d188185612c16565b9350612d2383612c27565b8060005b83811015612d54578151612d3b8882612cde565b9750612d4683612cf6565b925050600181019050612d27565b5085935050505092915050565b60006020820190508181036000830152612d7b8184612d03565b905092915050565b600060208284031215612d9957612d986128ec565b5b6000612da784828501612b39565b91505092915050565b600080fd5b600080fd5b7f4e487b7100000000000000000000000000000000000000000000000000000000600052604160045260246000fd5b612df2826129f7565b810181811067ffffffffffffffff82111715612e1157612e10612dba565b5b80604052505050565b6000612e246128e2565b9050612e308282612de9565b919050565b600067ffffffffffffffff821115612e5057612e4f612dba565b5b612e59826129f7565b9050602081019050919050565b82818337600083830152505050565b6000612e88612e8384612e35565b612e1a565b905082815260208101848484011115612ea457612ea3612db5565b5b612eaf848285612e66565b509392505050565b600082601f830112612ecc57612ecb612db0565b5b8135612edc848260208601612e75565b91505092915050565b60008060408385031215612efc57612efb6128ec565b5b600083013567ffffffffffffffff811115612f1a57612f196128f1565b5b612f2685828601612eb7565b9250506020612f3785828601612a84565b9150509250929050565b612f4a8161297b565b8114612f5557600080fd5b50565b600081359050612f6781612f41565b92915050565b60008060408385031215612f8457612f836128ec565b5b6000612f9285828601612b39565b9250506020612fa385828601612f58565b9150509250929050565b60a082016000820151612fc36000850182612c37565b506020820151612fd66020850182612c58565b506040820151612fe96040850182612c58565b506060820151612ffc6060850182612c37565b50608082015161300f6080850182612c67565b50505050565b600060a08201905061302a6000830184612fad565b92915050565b600067ffffffffffffffff82111561304b5761304a612dba565b5b613054826129f7565b9050602081019050919050565b600061307461306f84613030565b612e1a565b9050828152602081018484840111156130905761308f612db5565b5b61309b848285612e66565b509392505050565b600082601f8301126130b8576130b7612db0565b5b81356130c8848260208601613061565b91505092915050565b600080600080608085870312156130eb576130ea6128ec565b5b60006130f987828801612b39565b945050602061310a87828801612b39565b935050604061311b87828801612a84565b925050606085013567ffffffffffffffff81111561313c5761313b6128f1565b5b613148878288016130a3565b91505092959194509250565b6000806040838503121561316b5761316a6128ec565b5b600061317985828601612b39565b925050602061318a85828601612b39565b9150509250929050565b7f4e487b7100000000000000000000000000000000000000000000000000000000600052602260045260246000fd5b600060028204905060018216806131db57607f821691505b6020821081036131ee576131ed613194565b5b50919050565b7f4552433732313a20617070726f76616c20746f2063757272656e74206f776e6560008201527f7200000000000000000000000000000000000000000000000000000000000000602082015250565b60006132506021836129bc565b915061325b826131f4565b604082019050919050565b6000602082019050818103600083015261327f81613243565b9050919050565b7f4552433732313a20617070726f76652063616c6c6572206973206e6f7420746f60008201527f6b656e206f776e6572206f7220617070726f76656420666f7220616c6c000000602082015250565b60006132e2603d836129bc565b91506132ed82613286565b604082019050919050565b60006020820190508181036000830152613311816132d5565b9050919050565b7f4552433732313a2063616c6c6572206973206e6f7420746f6b656e206f776e6560008201527f72206f7220617070726f76656400000000000000000000000000000000000000602082015250565b6000613374602d836129bc565b915061337f82613318565b604082019050919050565b600060208201905081810360008301526133a381613367565b9050919050565b7f4e487b7100000000000000000000000000000000000000000000000000000000600052601160045260246000fd5b60006133e482612a63565b91506133ef83612a63565b9250828201905080821115613407576134066133aa565b5b92915050565b600061341882612a63565b91507fffffffffffffffffffffffffffffffffffffffffffffffffffffffffffffffff820361344a576134496133aa565b5b600182019050919050565b7f4e487b7100000000000000000000000000000000000000000000000000000000600052603260045260246000fd5b7f4552433732313a20696e76616c696420746f6b656e2049440000000000000000600082015250565b60006134ba6018836129bc565b91506134c582613484565b602082019050919050565b600060208201905081810360008301526134e9816134ad565b9050919050565b7f4552433732313a2061646472657373207a65726f206973206e6f74206120766160008201527f6c6964206f776e65720000000000000000000000000000000000000000000000602082015250565b600061354c6029836129bc565b9150613557826134f0565b604082019050919050565b6000602082019050818103600083015261357b8161353f565b9050919050565b7f73656e6420656e6f756768206574686572730000000000000000000000000000600082015250565b60006135b86012836129bc565b91506135c382613582565b602082019050919050565b600060208201905081810360008301526135e7816135ab565b9050919050565b7f6d616b652073757265207072696365206973206e6f742061206e65676174697660008201527f652076616c756500000000000000000000000000000000000000000000000000602082015250565b600061364a6027836129bc565b9150613655826135ee565b604082019050919050565b600060208201905081810360008301526136798161363d565b9050919050565b7f706c73207375626d6974207468652061736b696e67207072696365206265666f60008201527f72652070757263686173696e6700000000000000000000000000000000000000602082015250565b60006136dc602d836129bc565b91506136e782613680565b604082019050919050565b6000602082019050818103600083015261370b816136cf565b9050919050565b600081905092915050565b6000613728826129b1565b6137328185613712565b93506137428185602086016129cd565b80840191505092915050565b600061375a828561371d565b9150613766828461371d565b91508190509392505050565b7f4552433732313a207472616e736665722066726f6d20696e636f72726563742060008201527f6f776e6572000000000000000000000000000000000000000000000000000000602082015250565b60006137ce6025836129bc565b91506137d982613772565b604082019050919050565b600060208201905081810360008301526137fd816137c1565b9050919050565b7f4552433732313a207472616e7366657220746f20746865207a65726f2061646460008201527f7265737300000000000000000000000000000000000000000000000000000000602082015250565b60006138606024836129bc565b915061386b82613804565b604082019050919050565b6000602082019050818103600083015261388f81613853565b9050919050565b7f45524337323155524953746f726167653a2055524920736574206f66206e6f6e60008201527f6578697374656e7420746f6b656e000000000000000000000000000000000000602082015250565b60006138f2602e836129bc565b91506138fd82613896565b604082019050919050565b60006020820190508181036000830152613921816138e5565b9050919050565b60008190508160005260206000209050919050565b60006020601f8301049050919050565b600082821b905092915050565b60006008830261398a7fffffffffffffffffffffffffffffffffffffffffffffffffffffffffffffffff8261394d565b613994868361394d565b95508019841693508086168417925050509392505050565b6000819050919050565b60006139d16139cc6139c784612a63565b6139ac565b612a63565b9050919050565b6000819050919050565b6139eb836139b6565b6139ff6139f7826139d8565b84845461395a565b825550505050565b600090565b613a14613a07565b613a1f8184846139e2565b505050565b5b81811015613a4357613a38600082613a0c565b600181019050613a25565b5050565b601f821115613a8857613a5981613928565b613a628461393d565b81016020851015613a71578190505b613a85613a7d8561393d565b830182613a24565b50505b505050565b600082821c905092915050565b6000613aab60001984600802613a8d565b1980831691505092915050565b6000613ac48383613a9a565b9150826002028217905092915050565b613add826129b1565b67ffffffffffffffff811115613af657613af5612dba565b5b613b0082546131c3565b613b0b828285613a47565b600060209050601f831160018114613b3e5760008415613b2c578287015190505b613b368582613ab8565b865550613b9e565b601f198416613b4c86613928565b60005b82811015613b7457848901518255600182019150602085019450602081019050613b4f565b86831015613b915784890151613b8d601f891682613a9a565b8355505b6001600288020188555050505b505050505050565b7f486f706566756c6c792073656e64696e672074686520636f727265637420707260008201527f6963650000000000000000000000000000000000000000000000000000000000602082015250565b6000613c026023836129bc565b9150613c0d82613ba6565b604082019050919050565b60006020820190508181036000830152613c3181613bf5565b9050919050565b7f4d616b652073757265207468652070726963652069736e2774206e656761746960008201527f7665000000000000000000000000000000000000000000000000000000000000602082015250565b6000613c946022836129bc565b9150613c9f82613c38565b604082019050919050565b60006020820190508181036000830152613cc381613c87565b9050919050565b7f4552433732313a20617070726f766520746f2063616c6c657200000000000000600082015250565b6000613d006019836129bc565b9150613d0b82613cca565b602082019050919050565b60006020820190508181036000830152613d2f81613cf3565b9050919050565b7f4552433732313a207472616e7366657220746f206e6f6e20455243373231526560008201527f63656976657220696d706c656d656e7465720000000000000000000000000000602082015250565b6000613d926032836129bc565b9150613d9d82613d36565b604082019050919050565b60006020820190508181036000830152613dc181613d85565b9050919050565b6000613dd382612a63565b9150613dde83612a63565b9250828203905081811115613df657613df56133aa565b5b92915050565b600081519050919050565b600082825260208201905092915050565b6000613e2382613dfc565b613e2d8185613e07565b9350613e3d8185602086016129cd565b613e46816129f7565b840191505092915050565b6000608082019050613e666000830187612af8565b613e736020830186612af8565b613e806040830185612b8e565b8181036060830152613e928184613e18565b905095945050505050565b600081519050613eac81612922565b92915050565b600060208284031215613ec857613ec76128ec565b5b6000613ed684828501613e9d565b91505092915050565b7f4e487b7100000000000000000000000000000000000000000000000000000000600052601260045260246000fd5b7f4552433732313a206d696e7420746f20746865207a65726f2061646472657373600082015250565b6000613f446020836129bc565b9150613f4f82613f0e565b602082019050919050565b60006020820190508181036000830152613f7381613f37565b9050919050565b7f4552433732313a20746f6b656e20616c7265616479206d696e74656400000000600082015250565b6000613fb0601c836129bc565b9150613fbb82613f7a565b602082019050919050565b60006020820190508181036000830152613fdf81613fa3565b905091905056fea2646970667358221220fba1f06a954cc21f235994534072dd4fb8a0a9cde7497848c6402c6673d27f0064736f6c63430008110033",
  "linkReferences": {},
  "deployedLinkReferences": {}
}